:060000000A128A11122809
:10000800FE00030EF3000408F4000A08F50083124A
:1000180003137F08F6000A168A11072A0A168A119E
:100028003528831203134308FF3EC4004408AF0079
:10003800B0010314B00D42080A168A11C3230A122C
:100048008A11831203134308FB3EC4004408AF001F
:10005800B0010314B00D42080A168A11C3230A120C
:100068008A11831203134308C4004408AF00B00187
:100078000314B00D4208013E0A168A11C3230A125E
:100088008A11831203134308FA3EC4004408AF00E0
:10009800B0010314B00D4208013E0A168A11C323A9
:1000A8000A128A11831203134308C4004408AF00DC
:1000B800B0010314B00D4208023E0A168A11C32388
:1000C8000A128A11831203134308FD3EC400440830
:1000D800AF00B0010314B00D4208023E0A168A119F
:1000E800C3230A128A11831203134308FA3EC40079
:1000F8004408AF00B0010314B00D4208023E0A16CE
:100108008A11C3230A128A11831203134308C400F5
:100118004408AF00B0010314B00D4208033E0A16AC
:100128008A11C3230A128A11831203134308FD3E5E
:10013800C4004408AF00B0010314B00D4208033EE8
:100148000A168A11C3230A128A1183120313430859
:10015800FA3EC4004408AF00B0010314B00D4208D1
:10016800033E0A168A11C3230A128A118312031343
:100178004308FF3EC4004408AF00B0010314B00DAB
:100188004208043E0A168A11C3230A128A118312EE
:1001980003134308FE3EC4004408AF00B001031433
:1001A800B00D4208043E0A168A11C3230A128A11A6
:1001B800831203134308FC3EC4004408AF00B00197
:1001C8000314B00D4208043E0A168A11C3230A120A
:1001D8008A11831203134308FB3EC4004408AF008E
:1001E800B0010314B00D4208043E0A168A11C32355
:1001F8000A128A11512F831203134308FD3EC400CB
:100208004408AF00B0010314B00D42080A168A1161
:10021800C3230A128A11831203134308FC3EC40045
:100228004408AF00B0010314B00D42080A168A1141
:10023800C3230A128A11831203134308FE3EC40023
:100248004408AF00B0010314B00D4208013E0A167D
:100258008A11C3230A128A11831203134308FC3E2E
:10026800C4004408AF00B0010314B00D4208013EB9
:100278000A168A11C3230A128A1183120313430828
:10028800FF3EC4004408AF00B0010314B00D42089B
:10029800023E0A168A11C3230A128A118312031313
:1002A8004308FC3EC4004408AF00B0010314B00D7D
:1002B8004208023E0A168A11C3230A128A118312BF
:1002C80003134308C4004408AF00B0010314B00D81
:1002D8004208033E0A168A11C3230A128A1183129E
:1002E80003134308FF3EC4004408AF00B0010314E1
:1002F800B00D4208033E0A168A11C3230A128A1156
:10030800831203134308FE3EC4004408AF00B00143
:100318000314B00D4208033E0A168A11C3230A12B9
:100328008A11831203134308FD3EC4004408AF003A
:10033800B0010314B00D4208033E0A168A11C32304
:100348000A128A11831203134308FC3EC4004408AE
:10035800AF00B0010314B00D4208033E0A168A111B
:10036800C3230A128A11831203134308FB3EC400F5
:100378004408AF00B0010314B00D4208033E0A164A
:100388008A11C3230A128A11831203134308FA3EFF
:10039800C4004408AF00B0010314B00D4208033E86
:1003A8000A168A11C3230A128A11831203134308F7
:1003B800FC3EC4004408AF00B0010314B00D42086D
:1003C800043E0A168A11C3230A128A11512F831276
:1003D80003134308C4004408AF00B0010314B00D70
:1003E80042080A168A11C3230A128A1183120313B8
:1003F8004308FF3EC4004408AF00B0010314B00D29
:1004080042080A168A11C3230A128A118312031397
:100418004308FE3EC4004408AF00B0010314B00D09
:1004280042080A168A11C3230A128A118312031377
:100438004308FD3EC4004408AF00B0010314B00DEA
:1004480042080A168A11C3230A128A118312031357
:100458004308FB3EC4004408AF00B0010314B00DCC
:1004680042080A168A11C3230A128A118312031337
:100478004308C4004408AF00B0010314B00D42089B
:10048800013E0A168A11C3230A128A118312031322
:100498004308FD3EC4004408AF00B0010314B00D8A
:1004A8004208013E0A168A11C3230A128A118312CE
:1004B80003134308FA3EC4004408AF00B001031414
:1004C800B00D4208013E0A168A11C3230A128A1186
:1004D800831203134308C4004408AF00B001031497
:1004E800B00D4208023E0A168A11C3230A128A1165
:1004F800831203134308FD3EC4004408AF00B00153
:100508000314B00D4208023E0A168A11C3230A12C8
:100518008A11831203134308FA3EC4004408AF004B
:10052800B0010314B00D4208023E0A168A11C32313
:100538000A128A11831203134308C4004408AF0047
:10054800B0010314B00D4208033E0A168A11C323F2
:100558000A128A11831203134308FD3EC40044089B
:10056800AF00B0010314B00D4208033E0A168A1109
:10057800C3230A128A11831203134308FA3EC400E4
:100588004408AF00B0010314B00D4208033E0A1638
:100598008A11C3230A128A11831203134308C40061
:1005A8004408AF00B0010314B00D4208043E0A1617
:1005B8008A11C3230A128A11831203134308FC3ECB
:1005C800C4004408AF00B0010314B00D4208043E53
:1005D8000A168A11C3230A128A11831203134308C5
:1005E800FB3EC4004408AF00B0010314B00D42083C
:1005F800043E0A168A11C3230A128A11512F831244
:1006080003134308FF3EC4004408AF00B0010314BD
:10061800B00D42080A168A11C3230A128A118312DE
:1006280003134308FE3EC4004408AF00B00103149E
:10063800B00D42080A168A11C3230A128A118312BE
:1006480003134308FD3EC4004408AF00B00103147F
:10065800B00D42080A168A11C3230A128A1183129E
:1006680003134308FC3EC4004408AF00B001031460
:10067800B00D42080A168A11C3230A128A1183127E
:1006880003134308FB3EC4004408AF00B001031441
:10069800B00D42080A168A11C3230A128A1183125E
:1006A80003134308C4004408AF00B0010314B00D9D
:1006B8004208013E0A168A11C3230A128A118312BC
:1006C80003134308FD3EC4004408AF00B0010314FF
:1006D800B00D4208013E0A168A11C3230A128A1174
:1006E800831203134308FA3EC4004408AF00B00164
:1006F8000314B00D4208013E0A168A11C3230A12D8
:100708008A11831203134308C4004408AF00B001E0
:100718000314B00D4208023E0A168A11C3230A12B6
:100728008A11831203134308FD3EC4004408AF0036
:10073800B0010314B00D4208023E0A168A11C32301
:100748000A128A11831203134308FA3EC4004408AC
:10075800AF00B0010314B00D4208023E0A168A1118
:10076800C3230A128A11831203134308C4004408DE
:10077800AF00B0010314B00D4208033E0A168A11F7
:10078800C3230A128A11831203134308FD3EC400CF
:100798004408AF00B0010314B00D4208033E0A1626
:1007A8008A11C3230A128A11831203134308FA3EDB
:1007B800C4004408AF00B0010314B00D4208033E62
:1007C8000A168A11C3230A128A11831203134308D3
:1007D800FF3EC4004408AF00B0010314B00D420846
:1007E800043E0A168A11C3230A128A1183120313BC
:1007F8004308FC3EC4004408AF00B0010314B00D28
:100808004208043E0A168A11C3230A128A11831267
:1008180003134308FB3EC4004408AF00B0010314AF
:10082800B00D4208043E0A168A11C3230A128A111F
:10083800512F831203134308C4004408AF00B001CA
:100848000314B00D42080A168A11C3230A128A112A
:10085800831203134308FF3EC4004408AF00B001ED
:100868000314B00D42080A168A11C3230A128A110A
:10087800831203134308C4004408AF00B0010314F3
:10088800B00D4208013E0A168A11C3230A128A11C2
:10089800831203134308C4004408AF00B0010314D3
:1008A800B00D4208023E0A168A11C3230A128A11A1
:1008B800831203134308FF3EC4004408AF00B0018D
:1008C8000314B00D4208023E0A168A11C3230A1205
:1008D8008A11831203134308FB3EC4004408AF0087
:1008E800B0010314B00D4208023E0A168A11C32350
:1008F8000A128A11831203134308FA3EC4004408FB
:10090800AF00B0010314B00D4208023E0A168A1166
:10091800C3230A128A11831203134308C40044082C
:10092800AF00B0010314B00D4208033E0A168A1145
:10093800C3230A128A11831203134308FD3EC4001D
:100948004408AF00B0010314B00D4208033E0A1674
:100958008A11C3230A128A11831203134308FC3E27
:10096800C4004408AF00B0010314B00D4208033EB0
:100978000A168A11C3230A128A1183120313430821
:10098800C4004408AF00B0010314B00D4208043E8F
:100998000A168A11C3230A128A1183120313430801
:1009A800FF3EC4004408AF00B0010314B00D420874
:1009B800043E0A168A11C3230A128A1183120313EA
:1009C8004308FE3EC4004408AF00B0010314B00D54
:1009D8004208043E0A168A11C3230A128A11512FAB
:1009E800831203134308FF3EC4004408AF00B0015C
:1009F8000314B00D42080A168A11C3230A128A1179
:100A0800831203134308FE3EC4004408AF00B0013C
:100A18000314B00D42080A168A11C3230A128A1158
:100A2800831203134308FC3EC4004408AF00B0011E
:100A38000314B00D42080A168A11C3230A128A1138
:100A4800831203134308FB3EC4004408AF00B001FF
:100A58000314B00D42080A168A11C3230A128A1118
:100A6800831203134308C4004408AF00B001031401
:100A7800B00D4208013E0A168A11C3230A128A11D0
:100A8800831203134308FD3EC4004408AF00B001BD
:100A98000314B00D4208013E0A168A11C3230A1234
:100AA8008A11831203134308FA3EC4004408AF00B6
:100AB800B0010314B00D4208013E0A168A11C3237F
:100AC8000A128A11831203134308C4004408AF00B2
:100AD800B0010314B00D4208023E0A168A11C3235E
:100AE8000A128A11831203134308FD3EC400440806
:100AF800AF00B0010314B00D4208023E0A168A1175
:100B0800C3230A128A11831203134308FA3EC4004E
:100B18004408AF00B0010314B00D4208023E0A16A3
:100B28008A11C3230A128A11831203134308C400CB
:100B38004408AF00B0010314B00D4208033E0A1682
:100B48008A11C3230A128A11831203134308FD3E34
:100B5800C4004408AF00B0010314B00D4208033EBE
:100B68000A168A11C3230A128A118312031343082F
:100B7800FA3EC4004408AF00B0010314B00D4208A7
:100B8800033E0A168A11C3230A128A118312031319
:100B98004308FF3EC4004408AF00B0010314B00D81
:100BA8004208043E0A168A11C3230A128A118312C4
:100BB80003134308FE3EC4004408AF00B001031409
:100BC800B00D4208043E0A168A11C3230A128A117C
:100BD800831203134308FC3EC4004408AF00B0016D
:100BE8000314B00D4208043E0A168A11C3230A12E0
:100BF8008A11831203134308FB3EC4004408AF0064
:100C0800B0010314B00D4208043E0A168A11C3232A
:100C18000A128A11512F831203134308FF3EC4009E
:100C28004408AF00B0010314B00D42080A168A1137
:100C3800C3230A128A11831203134308FE3EC40019
:100C48004408AF00B0010314B00D42080A168A1117
:100C5800C3230A128A11831203134308FB3EC400FC
:100C68004408AF00B0010314B00D42080A168A11F7
:100C7800C3230A128A11831203134308C4004408C9
:100C8800AF00B0010314B00D4208013E0A168A11E4
:100C9800C3230A128A11831203134308FD3EC400BA
:100CA8004408AF00B0010314B00D4208013E0A1613
:100CB8008A11C3230A128A11831203134308FA3EC6
:100CC800C4004408AF00B0010314B00D4208013E4F
:100CD8000A168A11C3230A128A11831203134308BE
:100CE800C4004408AF00B0010314B00D4208023E2E
:100CF8000A168A11C3230A128A118312031343089E
:100D0800FD3EC4004408AF00B0010314B00D420812
:100D1800023E0A168A11C3230A128A118312031388
:100D28004308FA3EC4004408AF00B0010314B00DF4
:100D38004208023E0A168A11C3230A128A11831234
:100D480003134308C4004408AF00B0010314B00DF6
:100D58004208033E0A168A11C3230A128A11831213
:100D680003134308FD3EC4004408AF00B001031458
:100D7800B00D4208033E0A168A11C3230A128A11CB
:100D8800831203134308FA3EC4004408AF00B001BD
:100D98000314B00D4208033E0A168A11C3230A122F
:100DA8008A11831203134308FF3EC4004408AF00AE
:100DB800B0010314B00D4208043E0A168A11C32379
:100DC8000A128A11831203134308FE3EC400440822
:100DD800AF00B0010314B00D4208043E0A168A1190
:100DE800C3230A128A11831203134308FD3EC40069
:100DF8004408AF00B0010314B00D4208043E0A16BF
:100E08008A11C3230A128A11831203134308FC3E72
:100E1800C4004408AF00B0010314B00D4208043EFA
:100E28000A168A11C3230A128A118312031343086C
:100E3800FB3EC4004408AF00B0010314B00D4208E3
:100E4800043E0A168A11C3230A128A11512F8312EB
:100E580003134508003A0319522F013A0A128A155A
:100E6800031936280A128A11033A0319552F013A31
:100E780003191528073A0319FF28013A0319EB2922
:100E8800033A0319032B013A03191D2C0F3A0319CE
:100E9800F42C013A03190F2E512F08000A168A154F
:100EA800F72E0A128A15132983160313850189015F
:100EB8008801EF30870083120313880185018901B7
:100EC800DC01E101DD01E001DB01DF01DA01833052
:100ED800831603138100D0308B0001308C008030E2
:100EE800831203138F000F30900083160313AF0192
:100EF8000314AF0DBE010314BE0DCD010314CD0DB7
:100F08008312031790010314900D9F0103149F0D82
:100F1800AE010314AE0DBD010314BD0D03308312E1
:100F28000313D800580883120317CB0048308312E4
:100F38000313D8005808FD00A12F831203135C087F
:100F4800031DA72FEA2F0330A6000030A7005D0875
:100F5800D800D9015808A8005908A9000A168A1506
:100F680071220A128A118312031327082604031D0B
:100F7800BE2FBF2FC52F0A168A1160200A128A11A8
:100F8800E72F033083120313A6000030A7005D0883
:100F9800D800D9015808A8005908A9000A168A15C6
:100FA80071220A128A1101308312031326062704BC
:100FB800031DDF2FE02FE72F0A168A15EA230A12EE
:100FC8008A11E72FE72F83120313DC010A168A150B
:100FD800DE240A128A110A168A15E5250A128A11D0
:0A0FE800A12FA12F0A128A1112286E
:1010040064008001840A04060319003404060328DA
:1010140083120313A401A5010F28201C12281328EE
:1010240019282208A4070318A50A2308A5070130D4
:101034000310A20DA30DFF3E031D1A280130031057
:10104400A10CA00CFF3E031D212821082004031D30
:101054002C282D280F282E282508A101A1072408B3
:10106400A001A00735280800831203134308FE3E9D
:10107400C4004408AF00B0010314B00D42080A16BE
:101084008A11C3230A128A15831203134308FA3EF2
:10109400C4004408AF00B0010314B00D42080A169E
:1010A4008A11C3230A128A15831203134308FF3ECD
:1010B400C4004408AF00B0010314B00D4208013E5F
:1010C4000A168A11C3230A128A15831203134308CA
:1010D400FA3EC4004408AF00B0010314B00D420846
:1010E400013E0A168A11C3230A128A1583120313B6
:1010F4004308C4004408AF00B0010314B00D420813
:10110400023E0A168A11C3230A128A158312031394
:101114004308FF3EC4004408AF00B0010314B00DFF
:101124004208023E0A168A11C3230A128A15831240
:1011340003134308FE3EC4004408AF00B001031487
:10114400B00D4208023E0A168A11C3230A128A15F8
:10115400831203134308FD3EC4004408AF00B001EA
:101164000314B00D4208023E0A168A11C3230A1260
:101174008A15831203134308FC3EC4004408AF00DD
:10118400B0010314B00D4208023E0A168A11C323AB
:101194000A128A15831203134308FB3EC400440851
:1011A400AF00B0010314B00D4208023E0A168A11C2
:1011B400C3230A128A15831203134308FA3EC40098
:1011C4004408AF00B0010314B00D4208023E0A16F1
:1011D4008A11C3230A128A15831203134308FA3EA1
:1011E400C4004408AF00B0010314B00D4208033E2C
:1011F4000A168A11C3230A128A1583120313430899
:10120400FA3EC4004408AF00B0010314B00D420814
:10121400043E0A168A11C3230A128A150A128A1175
:10122400512F831203134308FF3EC4004408AF0048
:10123400B0010314B00D42080A168A11C3230A121E
:101244008A15831203134308FA3EC4004408AF000E
:10125400B0010314B00D42080A168A11C3230A12FE
:101264008A15831203134308C4004408AF00B00175
:101274000314B00D4208013E0A168A11C3230A1250
:101284008A15831203134308FB3EC4004408AF00CD
:10129400B0010314B00D4208013E0A168A11C3239B
:1012A4000A128A15831203134308FA3EC400440841
:1012B400AF00B0010314B00D4208013E0A168A11B2
:1012C400C3230A128A15831203134308C400440873
:1012D400AF00B0010314B00D4208023E0A168A1191
:1012E400C3230A128A15831203134308FC3EC40065
:1012F4004408AF00B0010314B00D4208023E0A16C0
:101304008A11C3230A128A15831203134308FA3E6F
:10131400C4004408AF00B0010314B00D4208023EFB
:101324000A168A11C3230A128A1583120313430867
:10133400C4004408AF00B0010314B00D4208033EDA
:101344000A168A11C3230A128A1583120313430847
:10135400FD3EC4004408AF00B0010314B00D4208C0
:10136400033E0A168A11C3230A128A158312031331
:101374004308FA3EC4004408AF00B0010314B00DA2
:101384004208033E0A168A11C3230A128A158312DD
:1013940003134308FF3EC4004408AF00B001031424
:1013A400B00D4208043E0A168A11C3230A128A1594
:1013B400831203134308FE3EC4004408AF00B00187
:1013C4000314B00D4208043E0A168A11C3230A12FC
:1013D4008A15831203134308FA3EC4004408AF007D
:1013E400B0010314B00D4208043E0A168A11C32347
:1013F4000A128A15102983120313C400E32F033041
:10140400C3004308AF00B0010314B00D44080A162A
:101414008A11C3230A128A15023083120313C300EC
:101424004308AF00B0010314B00D44080A168A1132
:10143400C3230A128A1583120313AF010314AF0DD9
:10144400B0010314B00D44080A168A11C3230A120A
:101454008A1583120313AF01B0010314B00D4408BD
:101464000A168A11C3230A128A15FF308312031342
:10147400C3004308AF00B0010314B00D44080A16BA
:101484008A11C3230A128A15FE3083120313C30080
:101494004308AF00B0010314B00D44080A168A11C2
:1014A400C3230A128A15FD3083120313C3004308B1
:1014B400AF00B0010314B00D44080A168A11C32307
:1014C4000A128A15033083120313C3004308AF00C2
:1014D400B0010314B00D4408013E0A168A11C32357
:1014E4000A128A1583120313AF01B0010314B00D5D
:1014F4004408013E0A168A11C3230A128A150330CE
:1015040083120313C3004308AF00B0010314B00DEA
:101514004408023E0A168A11C3230A128A1583124A
:101524000313AF01B0010314B00D4408023E0A16C0
:101534008A11C3230A128A15033083120313C300CA
:101544004308AF00B0010314B00D4408033E0A166B
:101554008A11C3230A128A15023083120313C300AB
:101564004308AF00B0010314B00D4408033E0A164B
:101574008A11C3230A128A1583120313AF010314B9
:10158400AF0DB0010314B00D4408033E0A168A11CE
:10159400C3230A128A1583120313AF01B001031483
:1015A400B00D4408033E0A168A11C3230A128A1591
:1015B400FF2F033083120313C3004308AF00B001AD
:1015C4000314B00D44080A168A11C3230A128A159B
:1015D400023083120313C3004308AF00B0010314A5
:1015E400B00D44080A168A11C3230A128A158312FD
:1015F4000313AF010314AF0DB0010314B00D44087D
:101604000A168A11C3230A128A1583120313AF011F
:10161400B0010314B00D44080A168A11C3230A1238
:101624008A15FF3083120313C3004308AF00B001CF
:101634000314B00D44080A168A11C3230A128A152A
:10164400FE3083120313C3004308AF00B001031438
:10165400B00D44080A168A11C3230A128A15FD30F4
:1016640083120313C3004308AF00B0010314B00D89
:1016740044080A168A11C3230A128A1503308312F6
:101684000313C3004308AF00B0010314B00D4408B2
:10169400013E0A168A11C3230A128A158312031300
:1016A400AF01B0010314B00D4408013E0A168A11BB
:1016B400C3230A128A15FD3083120313C30043089F
:1016C400AF00B0010314B00D4408013E0A168A119C
:1016D400C3230A128A15033083120313C300430879
:1016E400AF00B0010314B00D4408023E0A168A117B
:1016F400C3230A128A1583120313AF01B001031422
:10170400B00D4408023E0A168A11C3230A128A1530
:10171400FD3083120313C3004308AF00B001031468
:10172400B00D4408023E0A168A11C3230A128A1510
:10173400033083120313C3004308AF00B001031442
:10174400B00D4408033E0A168A11C3230A128A15EF
:1017540083120313AF01B0010314B00D4408033E18
:101764000A168A11C3230A128A15FD308312031341
:10177400C3004308AF00B0010314B00D4408033E96
:101784000A168A11C3230A128A15FF2F0330831203
:101794000313C3004308AF00B0010314B00D4408A1
:1017A4000A168A11C3230A128A15033083120313FB
:1017B400C3004308AF00B0010314B00D4408013E58
:1017C4000A168A11C3230A128A15033083120313DB
:1017D400C3004308AF00B0010314B00D4408023E37
:1017E4000A168A11C3230A128A15023083120313BC
:1017F400C3004308AF00B0010314B00D4408023E17
:101804000A168A11C3230A128A1583120313AF011D
:101814000314AF0DB0010314B00D4408023E0A16C0
:101824008A11C3230A128A1583120313AF01B0016C
:101834000314B00D4408023E0A168A11C3230A1287
:101844008A15FF3083120313C3004308AF00B001AD
:101854000314B00D4408023E0A168A11C3230A1267
:101864008A15FE3083120313C3004308AF00B0018E
:101874000314B00D4408023E0A168A11C3230A1247
:101884008A15FD3083120313C3004308AF00B0016F
:101894000314B00D4408023E0A168A11C3230A1227
:1018A4008A15033083120313C3004308AF00B00149
:1018B4000314B00D4408033E0A168A11C3230A1206
:1018C4008A15033083120313C3004308AF00B00129
:1018D4000314B00D4408043E0A168A11C3230A12E5
:1018E4008A15FF2F033083120313C3004308AF008C
:1018F400B0010314B00D44080A168A11C3230A1256
:101904008A15023083120313C3004308AF00B001E9
:101914000314B00D44080A168A11C3230A128A1547
:1019240083120313AF010314AF0DB0010314B00D00
:1019340044080A168A11C3230A128A158312031350
:10194400AF01B0010314B00D44080A168A11C32371
:101954000A128A15FF3083120313C3004308AF0031
:10196400B0010314B00D44080A168A11C3230A12E5
:101974008A15FE3083120313C3004308AF00B0017D
:101984000314B00D44080A168A11C3230A128A15D7
:10199400FD3083120313C3004308AF00B0010314E6
:1019A400B00D44080A168A11C3230A128A15FD30A1
:1019B40083120313C3004308AF00B0010314B00D36
:1019C4004408013E0A168A11C3230A128A15FD30FF
:1019D40083120313C3004308AF00B0010314B00D16
:1019E4004408023E0A168A11C3230A128A15FD30DE
:1019F40083120313C3004308AF00B0010314B00DF6
:101A04004408033E0A168A11C3230A128A15FF2FBB
:101A1400FD3083120313C3004308AF00B001031465
:101A2400B00D44080A168A11C3230A128A15FE301F
:101A340083120313C3004308AF00B0010314B00DB5
:101A440044080A168A11C3230A128A15FF30831226
:101A54000313C3004308AF00B0010314B00D4408DE
:101A6400013E0A168A11C3230A128A15831203132C
:101A7400AF01B0010314B00D4408013E0A168A11E7
:101A8400C3230A128A1583120313AF010314AF0D83
:101A9400B0010314B00D4408013E0A168A11C32391
:101AA4000A128A15023083120313C3004308AF00DD
:101AB400B0010314B00D4408023E0A168A11C32370
:101AC4000A128A15033083120313C3004308AF00BC
:101AD400B0010314B00D4408023E0A168A11C32350
:101AE4000A128A15FD3083120313C3004308AF00A2
:101AF400B0010314B00D4408043E0A168A11C3232E
:101B04000A128A15FE3083120313C3004308AF0080
:101B1400B0010314B00D4408043E0A168A11C3230D
:101B24000A128A15FF3083120313C3004308AF005F
:101B3400B0010314B00D4408033E0A168A11C323EE
:101B44000A128A1583120313AF01B0010314B00DF6
:101B54004408033E0A168A11C3230A128A15831203
:101B64000313AF010314AF0DB0010314B00D440807
:101B7400033E0A168A11C3230A128A1502308312FD
:101B84000313C3004308AF00B0010314B00D4408AD
:101B9400023E0A168A11C3230A128A1503308312DD
:101BA4000313C3004308AF00B0010314B00D44088D
:101BB400023E0A168A11C3230A128A1583120313DA
:101BC400AF01B0010314B00D4408023E0A168A1195
:101BD400C3230A128A15FF2FFE3083120313C30096
:101BE4004308AF00B0010314B00D44080A168A116B
:101BF400C3230A128A15FF3083120313C300430858
:101C0400AF00B0010314B00D44080A168A11C323AF
:101C14000A128A1583120313AF01B0010314B00D25
:101C240044080A168A11C3230A128A15831203135D
:101C3400AF010314AF0DB0010314B00D44080A162C
:101C44008A11C3230A128A15023083120313C300B4
:101C54004308AF00B0010314B00D44080A168A11FA
:101C6400C3230A128A15033083120313C3004308E3
:101C7400AF00B0010314B00D4408013E0A168A11E6
:101C8400C3230A128A15FD3083120313C3004308C9
:101C9400AF00B0010314B00D4408013E0A168A11C6
:101CA400C3230A128A15033083120313C3004308A3
:101CB400AF00B0010314B00D4408023E0A168A11A5
:101CC400C3230A128A15FD3083120313C300430889
:101CD400AF00B0010314B00D4408023E0A168A1185
:101CE400C3230A128A15033083120313C300430863
:101CF400AF00B0010314B00D4408033E0A168A1164
:101D0400C3230A128A15FD3083120313C300430848
:101D1400AF00B0010314B00D4408043E0A168A1142
:101D2400C3230A128A15FF2FFD3083120313C30045
:101D34004308AF00B0010314B00D4408023E0A1674
:101D44008A11C3230A128A15FE3083120313C300B7
:101D54004308AF00B0010314B00D4408023E0A1654
:101D64008A11C3230A128A15FF3083120313C30096
:101D74004308AF00B0010314B00D4408023E0A1634
:101D84008A11C3230A128A1583120313AF01B00107
:101D94000314B00D4408023E0A168A11C3230A1222
:101DA4008A1583120313AF010314AF0DB00103149A
:101DB400B00D4408023E0A168A11C3230A128A157A
:101DC400033083120313C3004308AF00B0010314AC
:101DD400B00D4408023E0A168A11C3230A128A155A
:101DE400FF2FFD3083120313C3004308AF00B0017B
:101DF4000314B00D44080A168A11C3230A128A1563
:101E0400FE3083120313C3004308AF00B001031470
:101E1400B00D44080A168A11C3230A128A15FF302A
:101E240083120313C3004308AF00B0010314B00DC1
:101E340044080A168A11C3230A128A15831203134B
:101E4400AF01B0010314B00D44080A168A11C3236C
:101E54000A128A1583120313AF010314AF0DB001E4
:101E64000314B00D44080A168A11C3230A128A15F2
:101E7400023083120313C3004308AF00B0010314FC
:101E8400B00D44080A168A11C3230A128A150330B6
:101E940083120313C3004308AF00B0010314B00D51
:101EA40044080A168A11C3230A128A1503308312BE
:101EB4000313C3004308AF00B0010314B00D44087A
:101EC400013E0A168A11C3230A128A1583120313C8
:101ED400AF01B0010314B00D4408013E0A168A1183
:101EE400C3230A128A15FF3083120313C300430865
:101EF400AF00B0010314B00D4408013E0A168A1164
:101F0400C3230A128A15033083120313C300430840
:101F1400AF00B0010314B00D4408023E0A168A1142
:101F2400C3230A128A1583120313AF01B0010314E9
:101F3400B00D4408023E0A168A11C3230A128A15F8
:101F4400FE3083120313C3004308AF00B00103142F
:101F5400B00D4408023E0A168A11C3230A128A15D8
:101F6400023083120313C3004308AF00B00103140B
:101F7400B00D4408033E0A168A11C3230A128A15B7
:101F840083120313AF010314AF0DB0010314B00D9A
:101F94004408033E0A168A11C3230A128A15FD3027
:101FA40083120313C3004308AF00B0010314B00D40
:101FB4004408033E0A168A11C3230A128A15FF2F06
:101FC400FF2F831203134208613A03190A2D023AC0
:101FD4000319EE2D063A0319DB2A0C3A0319962E3F
:101FE400053A0319742C1C3A0319012A023A0319FD
:0C1FF400F32E063A0319C82BFF2F08003B
:1020360083120313B000AF01301C2228232828285E
:102046002D08AE002E08AF0728280310AD0D03108B
:10205600B00CB008031D302831281F2832282F085D
:1020660034280800F801F901FA01FB01FC01831389
:102076005A30840062300A128A1502200A168A1122
:10208600A0308400DC300A128A1502200A168A1152
:10209600831790308400CC300A128A1502200A1663
:1020A6008A11103084004C300A128A1502200A1652
:1020B6008A1183010A128A11582F053083120313DD
:1020C600B1003108AD000A30A2000030A3005A0862
:1020D600B200B3013208A0003308A1000A128A1523
:1020E6000A200A168A11831203135F082007A80024
:1020F60021080318210AA9000C30A6000030A70009
:102106000A168A1571220A168A11831203132608E3
:102116000A168A111B200A168A11FF3A013E0F3E43
:1021260083120313B4003408B5000A30B100310835
:10213600AD005B080A168A111B200A168A11831243
:102146000313B20060083207FF3A013E0F3EB300A8
:102156003308B6000A30B1003108AD005D080A1632
:102166008A111B200A168A1183120313B200610812
:102176003207FF3A013E0F3EB3003308B700813005
:102186003702031CC728C828CD283C30B1003108C7
:10219600B707CD2881303602031CD228D328D82889
:1021A6003C30B1003108B607D82881303502031C0F
:1021B600DD28DE28E3283C30B1003108B507E328E6
:1021C600B8013C303802031CE928EA28EC283129FA
:1021D60031293808A03E8400003083138000B10006
:1021E6003808103E84003108831780000008B200CA
:1021F6003808903E8400320880000A30A60000307D
:10220600A7003808B100B2013108A8003208A900B9
:102216000A168A1571220A168A11831203132708D1
:102226002604031D1729182926293808A03E8400EC
:10223600013083138000B1003808103E8400310855
:102246008317800026290130B1003108B8073C30D9
:102256003802031C2F293029EC2831290730B10018
:10226600310883160313A200A1010314A10D073040
:1022760083120313B100310883160313A0008312DF
:102286000317CB010314CB0D073083120313B100E0
:10229600310883120317CA00073083120313B100F3
:1022A600310883160313DA00053083120313B100D5
:1022B600310883160313DB00073083120313B100C2
:1022C6003108831203179000043083120313B10000
:1022D6003108831203179100073083120313B100EC
:1022E60031088312031792001F3083120313B100C3
:1022F600310883120317AD00153083120313B100A2
:10230600310883120317AE00173083120313B1008E
:10231600310883120317AF001F3083120313B10075
:10232600310883160313C000BF011D308312031347
:10233600B100310883160313BE0015308312031350
:10234600B100310883160313BD001730831203133F
:10235600B100310883160313BC00FF308312031348
:10236600B1003508903E8400310883178000FF30A5
:10237600B1003608903E840031088000FF30B1007D
:102386003708903E8400310880003608B1003107D6
:10239600B2003208B6003708B1003107B200320881
:1023A600B7003C3036020318D929DA29E329F03080
:1023B600B1003608A03E8400310883138004ED295D
:1023C600F030B1003608C43E103E84003108831751
:1023D6008004ED293C3037020318F229F329FC2941
:1023E600FC30B1003708A03E840031088313800416
:1023F600062AFC30B1003708C43E103E840031087E
:1024060083178004062A08000C1C0A2A0B2A652A50
:102416000C1001308E0080308F000F309000DC01F0
:102426000314DC0D0130F0007008E1070A30610288
:10243600031C1E2A1F2A652AE1010130F0007008DC
:10244600DD0706305D02031C292A2A2A652ADD01DA
:102456000130F0007008E0070A306002031C342ADD
:10246600352A652AE0010130F0007008DB070630E6
:102476005B02031C3F2A402A652ADB010130F0007B
:102486007008DF075A08023A031D4A2A4B2A542AC3
:102496005F08043A031D502A512A542ADA01DF0143
:1024A600542A0A305F02031C592A5A2A652ADF0178
:1024B6000130F0007008DA07652A652A652A652A60
:1024C600652A652A0B1D682A692A332B8B1E6C2AFE
:1024D6006D2A332B0B117A0881003C307B020318DE
:1024E600752A762A7D2A7B08A03E8400831300087D
:1024F6008800852A7B08C43E103E840083170008A6
:102506008800852A7B18882A892AA12A7B08F00058
:102516000310700C903E840083170008F1007108C8
:10252600F700770889007708F00002300310F00CF6
:10253600FF3E031D992A70088500A12A7B080F3AE1
:10254600031DA62AA72AB32A871DAA2AAB2AB02AC0
:10255600FD30F0007008F905B12AF9140716272B8B
:102566007B081E3A031DB82AB92AC52A871DBC2A2C
:10257600BD2AC22AFB30F0007008F905C32A791576
:102586000716272B7B082D3A031DCA2ACB2AD72AE2
:10259600871DCE2ACF2AD42AF730F0007008F90515
:1025A600D52AF9150716272B7B083C3A031DDC2A8A
:1025B600DD2AE92A871DE02AE12AE62AEF30F00023
:1025C6007008F905E72A79160716272B7B084B3A78
:1025D600031DEE2AEF2AFB2A871DF22AF32AF82A80
:1025E600DF30F0007008F905F92AF9160716272BCF
:1025F6007B085A3A031D002B012B0D2B871D042B3C
:10260600052B0A2BBF30F0007008F9050B2B791744
:102616000716272B7B08693A031D122B132B1F2B3A
:10262600871D162B172B1C2B7F30F0007008F90521
:102636001D2BF9170716272B0712272B272B272BBE
:10264600272B272B272B272B0130F0007008FB07A1
:102656007B08783A031D302B312B332B8B12332B0F
:102666008B1C362B372BB72B8B1083160313011BB2
:102676003D2B3E2B702B8312031381018B12831685
:102686000313200883120313880083160317100808
:10269600831203138900831603171008F000023013
:1026A6000310F00CFF3E031D532B70088312031317
:1026B6008500FB010314FB0D831603130117831218
:1026C60003130716871D682B692B6B2BF901B72B94
:1026D600F9010314F90DB72BB72B83120103FF3A47
:1026E6007D07F0007008F7007708FF3EF000FF3026
:1026F60003180030F1007108803A803C031D852BD9
:1027060070087A02031C882B892B9E2B7708013EC2
:10271600F000003003180130F1007108803AF20031
:1027260080307202031D992B7A08700203189C2BC5
:102736009D2BA22B9E2B7708F0007008FA007A08D2
:102746008312031381000B118B16831603132108C2
:102756008312031388000230F0007008FB00831612
:1027660003130113B72BB72B76088312FF007508E6
:102776008A0074088400730E8300FE0E7E0E090024
:1027860083120313BE00BC0181303E02031CCC2B16
:10279600CD2BD42BBE09BE0A0F30B1003108BC00C8
:1027A600D42B81302F02031CD92BDA2BE12BAF0956
:1027B600AF0AF030B1003108BC04E12B3E08B1008D
:1027C600B2013108A0003208A1003E08B300B401EE
:1027D6003308A2003408A3000A128A150A200A1632
:1027E6008A11831203132008B5002108B6002F08AA
:1027F600B700B8013708A0003808A1002F08B900B3
:10280600BA013908A2003A08A3000A128A150A205A
:102816000A168A118312031320083507C0002108FF
:102826000318210A3607C10041084004031D1C2C69
:102836001D2C202CFF2FFF2F0F2D003041020230C0
:10284600031940020318282C292C2E2C8030B100A5
:102856003108BD000F2D003041020530031940023A
:102866000318362C372C3C2C4030B1003108BD0003
:102876000F2D003041020A30031940020318442C80
:10288600452C4A2C2030B1003108BD000F2D0030F8
:1028960041021130031940020318522C532C582CB4
:1028A6001030B1003108BD000F2D003041021A3042
:1028B600031940020318602C612C662C0830B10005
:1028C6003108BD000F2D00304102253003194002AA
:1028D60003186E2C6F2C742C0430B1003108BD0027
:1028E6000F2D0030410232300319400203187C2CB0
:1028F6007D2C822C0230B1003108BD000F2D003036
:10290600410241300319400203188A2C8B2C8F2C6C
:10291600BD010314BD0D0F2D0030410252300319C5
:1029260040020318972C982C9D2C8030B10031085A
:10293600BD000F2D00304102653003194002031817
:10294600A52CA62CAB2C4030B1003108BD000F2DB4
:10295600003041027A30031940020318B32CB42C1C
:10296600B92C2030B1003108BD000F2D00304102D6
:102976009130031940020318C12CC22CC72C103009
:10298600B1003108BD000F2D00304102AA300319F5
:1029960040020318CF2CD02CD52C0830B1003108BA
:1029A600BD000F2D00304102C53003194002031847
:1029B600DD2CDE2CE32C0430B1003108BD000F2DD8
:1029C60000304102E230031940020318EB2CEC2CD4
:1029D600F12C0230B1003108BD000F2D013041024B
:1029E6000130031940020318F92CFA2CFF2FBD0100
:1029F6000314BD0D0F2DFF2F0F2D0F2D0F2D0F2D96
:102A06000F2D0F2D0F2D0F2D0F2D0F2D0F2D0F2DE0
:102A16000F2D0F2D0F2D0F2D0030410241300319C0
:102A26004002031C172D182D1C2DBB010314BB0DD2
:102A36001E2DBB011E2D3E08031D222D282DAF087D
:102A4600031D262D272D4B2D282DBE08031D2C2DAD
:102A56002D2D3D2DBC08031D312D322D372D1E3059
:102A6600B1003108BF009C2F5A30B1003108BF00B9
:102A76009C2F9C2FBC08031D412D422D442DBF01C8
:102A86009C2F3C30B1003108BF009C2F9C2F9C2FFF
:102A9600BC08031D4F2D502D702DBF013E08B100FF
:102AA600B2013108A6003208A7002F08B300B4010E
:102AB6003308B400B3013308A8003408A9000A1685
:102AC6008A15D9220A168A11831203132708C1010F
:102AD600C1072608C001C007E72D3C080F3A031DB1
:102AE600752D762D992D1E30B1003108BF002F08A7
:102AF600B100B2013108A6003208A7003E08B300B3
:102B0600B4013308B400B3013308A8003408A9009F
:102B16000A168A15D9220A168A1183120313270860
:102B2600C101C1072608C001C007E72D3C08FF3ACE
:102B3600031D9E2D9F2DC22D3C30B1003108BF00D4
:102B46003E08B100B2013108A6003208A7002F08DE
:102B5600B300B4013308B400B3013308A800340845
:102B6600A9000A168A15D9220A168A118312031396
:102B76002708C101C1072608C001C007E72D5A3042
:102B8600B1003108BF002F08B100B2013108A6001C
:102B96003208A7003E08B300B4013308B400B301FD
:102BA6003308A8003408A9000A168A15D9220A167D
:102BB6008A11831203132708C101C1072608C00121
:102BC600C007E72DE72DE72D003041020730031936
:102BD60040020318EF2DF02DF22D9C2F9C2F003074
:102BE60041021430031940020318FA2DFB2D002E62
:102BF6000130B1003108BF079C2F0030410222305E
:102C0600031940020318082E092E0E2E0230B100B9
:102C16003108BF079C2F003041022F3003194002B4
:102C26000318162E172E1C2E0330B1003108BF07CD
:102C36009C2F003041023E30031940020318242E17
:102C4600252E2A2E0430B1003108BF079C2F0030F4
:102C560041024C30031940020318322E332E382E0F
:102C66000530B1003108BF079C2F003041025B30B0
:102C7600031940020318402E412E462E0630B1009D
:102C86003108BF079C2F003041026A300319400209
:102C960003184E2E4F2E542E0730B1003108BF07B1
:102CA6009C2F003041027A300319400203185C2E33
:102CB6005D2E622E0830B1003108BF079C2F003010
:102CC60041028B300319400203186A2E6B2E702EB8
:102CD6000930B1003108BF079C2F003041029D30FA
:102CE600031940020318782E792E7E2E0A30B10081
:102CF6003108BF079C2F00304102B0300319400253
:102D06000318862E872E8C2E0B30B1003108BF0794
:102D16009C2F00304102C530031940020318942E3F
:102D2600952E9A2E0C30B1003108BF079C2F00302B
:102D36004102DB30031940020318A22EA32EA82E4F
:102D46000D30B1003108BF079C2F00304102F3302F
:102D5600031940020318B02EB12EB62E0E30B10064
:102D66003108BF079C2F013041020E300319400283
:102D76000318BE2EBF2EC42E0F30B1003108BF0778
:102D86009C2F013041022C30031940020318CC2E2F
:102D9600CD2ED22E1030B1003108BF079C2F013046
:102DA60041024E30031940020318DA2EDB2EE02EC4
:102DB6001130B1003108BF079C2F01304102753038
:102DC600031940020318E82EE92EEE2E1230B10048
:102DD6003108BF079C2F01304102A230031940027F
:102DE6000318F62EF72EFC2E1330B1003108BF075C
:102DF6009C2F01304102D730031940020318042FDB
:102E0600052F0A2F1430B1003108BF079C2F02305E
:102E160041021930031940020318122F132F182FDD
:102E26001530B1003108BF079C2F023041026A30CD
:102E3600031940020318202F212F262F1630B10028
:102E46003108BF079C2F02304102D33003194002DC
:102E560003182E2F2F2F342F1730B1003108BF073C
:102E66009C2F0330410260300319400203183C2FA7
:102E76003D2F422F1830B1003108BF079C2F043078
:102E860041022A300319400203184A2F4B2F502FB4
:102E96001930B1003108BF079C2F0530410265305B
:102EA600031940020318582F592F5E2F1A30B1000C
:102EB6003108BF079C2F07304102993003194002A1
:102EC6000318662F672F6C2F1B30B1003108BF0720
:102ED6009C2F0C304102B530031940020318742FA1
:102EE600752F7A2F1C30B1003108BF079C2F1D307B
:102EF600B1003108BF079C2F9C2F9C2F9C2F9C2F25
:102F06009C2F9C2F9C2F9C2F9C2F9C2F9C2F9C2F63
:102F16009C2F9C2F9C2F9C2F9C2F9C2F9C2F9C2F53
:102F26009C2F9C2F9C2F9C2F9C2F9C2F9C2F9C2F43
:102F36009C2F3008031DA02FCB2F3B08031DA42F69
:102F4600BE2F3C303F020318A92FAA2FB32F3D08EE
:102F5600B1003F08A03E8400310883138004FF2F90
:102F66003D08B1003F08C43E103E84003108831777
:102F76008004FF2FFF2F3D08B1003F08B200031069
:102F8600320C903E8400310883178004FF2FFF2FF8
:102F96003B08031DCF2FEF2F3C303F020318D42FE1
:102FA600D52FE12FBD08003003190130B1003F08CD
:102FB600A03E8400310883138005FF2FBD08003032
:102FC60003190130B1003F08C43E103E84003108A9
:102FD60083178005FF2FFF2FBD080030031901302E
:102FE600B1003F08B2000310320C903E8400310855
:0A2FF60083178005FF2FFF2F08004E
:1034E20083120313AC01A91F772A782A812AA8091B
:1034F200A909A80A0319A90AAC010314AC0D812A6F
:10350200A71F842A852A8B2AA609A709A60A0319B6
:10351200A70A8B2A270826040319902A912AC72A68
:10352200AB010314AB0DA12A01300310A60DA70DA8
:10353200FF3E031D962A0130AA002A08AB07A12AE2
:10354200A71FA42AA52A952AA72AA72A270829025B
:10355200031DAD2A26082802031CB02AB12AB82A64
:103562002608A8022708031CA903A902B82A0130C9
:103572000310A70CA60CFF3E031DB92A0130AB02B3
:10358200031DC42AC52AA72AC72AC72A2C08031D35
:10359200CB2AD12AA809A909A80A0319A90AD12A5A
:1035A2002908A701A7072808A601A607D82A080004
:1035B20083120313AC01A71FDF2AE02AE92AA60916
:1035C200A709A60A0319A70AAC010314AC0DE92A3C
:1035D200A91FEC2AED2AF72AA809A909A80A0319A2
:1035E200A90A0130AA002A08AC06F72AAD01AE01E9
:1035F200270826040319FE2AFF2A3D2BAB010314D8
:10360200AB0D0F2B01300310A60DA70DFF3E031DBE
:10361200042B0130AA002A08AB070F2BA71F122B7D
:10362200132B032B152B152B01300310AD0DAE0DF3
:10363200FF3E031D162B27082902031D222B2608F5
:103642002802031C252B262B2E2B2608A80227082E
:10365200031CA903A9022D142E2B01300310A70C61
:10366200A60CFF3E031D2F2B0130AB02031D3A2B8C
:103672003B2B152B3D2B3D2B2C08031D412B472BA0
:10368200AD09AE09AD0A0319AE0A472B2E08A701F0
:10369200A7072D08A601A6074E2B080083120313C5
:1036A200D00081304302031C572B582B5C2BC309DB
:1036B200C30A4308D00281304402031C612B622BEF
:1036C200672BC409C40A4408C202672BD301E22B48
:1036D2004508C700C8014708A6004808A7005308C4
:1036E200C900CA014908A0004A08A1004308CB004A
:1036F200CC014B08A2004C08A3000A128A150A202A
:103702000A168A15831203132108A901A9072008A2
:10371200A801A8070A168A15D9220A168A15831241
:1037220003132608CD002708CE0050084D07CF000E
:103732004F08D1004508C700C8014708A60048083D
:10374200A7005308C900CA014908A0004A08A100FD
:103752004408CB00CC014B08A2004C08A3000A127B
:103762008A150A200A168A15831203132108A90151
:10377200A9072008A801A8070A168A15D9220A163D
:103782008A15831203132608CD002708CE004208AB
:103792004D07CF004F08D2005208C7004708AF00BC
:1037A2004608C8004808B00051080A168A11C32307
:1037B2000A168A15013083120313C7004708D3077C
:1037C200E22B530845020318E72BE82B692BE92B60
:1037D200080083120313D7013C305702031CF22B5B
:1037E200F32BF52B142C142C5708903E8400003038
:1037F20083178000D4005708103E840054088000CC
:103802000008D5005708A03E8400550883138000A5
:103812000130D4005408D7073C305702031C122C45
:10382200132CF52B142CC2010314C20DFF30D4004B
:103832005408C30061080A168A15F1260A168A1569
:10384200FA3083120313D4005408C200FF30D500AB
:103852005508C3005D080A168A15F1260A168A154C
:10386200073083120313D4005408C2000830D50075
:103872005508C30060080A168A15F1260A168A1529
:1038820083120313C2010314C20D0830D40054087A
:10389200C3005B080A168A15F1260A168A15FA3041
:1038A20083120313D4005408C2000830D50055080F
:1038B200C3005F080A168A15F1260A168A15F43023
:1038C20083120313D4005408C2000830D5005508EF
:1038D200C3005A080A168A15F1260A168A15831297
:1038E20003136118752C762C7D2C1130D4005408EA
:1038F200831603179F007D2C0A3083120313D40012
:103902005408C2001D30D5005508C300C4011D3043
:10391200D6005608C500C6010314C60DF2300A16B9
:103922008A154F230A168A15F63083120313D40020
:103932005408C2001D30D5005508C300C4011D3013
:10394200D6005608C500C6010314C60DF2300A1689
:103952008A154F230A168A15F63083120313D400F0
:103962005408C200C3011530D5005508C4001530F3
:10397200D6005608C500C6010314C60D0E300A163D
:103982008A154F230A168A15F63083120313D400C0
:103992005408C200C3011530D5005508C4001530C3
:1039A200D6005608C500C6010314C60DF2300A1629
:1039B2008A154F230A168A1508000330831203134F
:1039C200A6000030A7005D08C500C6014508A80092
:1039D2004608A9000A168A1571220A168A150230AB
:1039E2008312031326062704031DF82CF92CE42D59
:1039F2000F08C50004300310C50CFF3E031DFC2C4C
:103A0200450807395E060319072D082DE42D0F0816
:103A1200C50004300310C50CFF3E031D0B2D4508E5
:103A22000739C6004608DE00C7013C304702031CC6
:103A32001B2D1C2D1E2D3D2D3D2D4708A03E840023
:103A4200003083138000C5004708103E84004508FB
:103A5200831780000008C6004708903E840046088D
:103A620080000130C5004508C7073C304702031CEF
:103A72003B2D3C2D1E2D3D2D6108C500023003104B
:103A8200C50DFF3E031D402D0310450D5E04C6000B
:103A92004608C7007030C5004508C2004703FF3A18
:103AA2000A128A15FD210A168A156530831203133C
:103AB200C5004508C2004703FF3A053E0A128A15AF
:103AC200FD210A168A15743083120313C5004508B6
:103AD200C2004703FF3A0A3E0A128A15FD210A165E
:103AE2008A15653083120313C5004508C2004703D7
:103AF200FF3A1C3E0A128A15FD210A168A156C30FD
:103B020083120313C5004508C2004703FF3A213E52
:103B12000A128A15FD210A168A15653083120313CB
:103B2200C5004508C2004703FF3A263E0A128A151D
:103B3200FD210A168A15743083120313C500450845
:103B4200C2004703FF3A2B3E0A128A15FD210A16CC
:103B52008A15723083120313C5004508C200470359
:103B6200FF3A313E0A128A15FD210A168A1569307A
:103B720083120313C5004508C2004703FF3A363ECD
:103B82000A128A15FD210A168A156330831203135D
:103B9200C5004508C2004703FF3A3B3E0A128A1598
:103BA200FD210A168A15613083120313C5004508E8
:103BB200C2004703FF3A403E0A128A15FD210A1647
:103BC2008A15E42DE42D08007908031DE92DF02E55
:103BD200791CEC2DED2DFA2D013083120313A00078
:103BE2002008FD07F030A000200883160317B50057
:103BF200FA2DF91CFD2DFE2D092E0130FD02F030AB
:103C020083120313A000200883160317BC00092E99
:103C1200791D0C2E0D2E222E013083120313A000CB
:103C22002008E10761080A3A031D182E192E1B2EDF
:103C3200E1011B2EF030A000200883160317C400F8
:103C4200222EF91D252E262E3B2E01308312031320
:103C5200A0002008DD075D08063A031D312E322E32
:103C6200342EDD01342EF030A00020088316031715
:103C7200CB003B2E791E3E2E3F2E542E0130831256
:103C82000313A0002008E00760080A3A031D4A2E29
:103C92004B2E4D2EE0014D2EF030A0002008831651
:103CA20003179600542EF91E572E582E6D2E0130F2
:103CB20083120313A0002008DB075B08063A031DEA
:103CC200632E642E662EDB01662EF030A0002008E3
:103CD200831603179E006D2E791F702E712E992E5A
:103CE200013083120313A0002008DF075F080A3A9D
:103CF200031D7C2E7D2E832E0130A0002008DA07C2
:103D0200DF01832E5A08023A031D882E892E922E35
:103D12005F08043A031D8E2E8F2E922EDA01DF01E8
:103D2200922EF030A000200883160317A500992ECA
:103D3200F91F9C2E9D2EA52EF03083120313A00096
:103D4200200883160317AD00D73083120313A10096
:103D52004730A000A00BAB2EA10BAB2EB02ED7305C
:103D620083120313A1004730A000A00BB62EA10BB3
:103D7200B62EBB2ED73083120313A1004730A0000A
:103D8200A00BC12EA10BC12EC62EC82EC82EF9081B
:103D9200031DCC2ECD2EC82ECE2ED7308312031368
:103DA200A1004730A000A00BD42EA10BD42ED92EF7
:103DB200D73083120313A1004730A000A00BDF2EDF
:103DC200A10BDF2EE42ED73083120313A10047305C
:103DD200A000A00BEA2EA10BEA2EEF2EF02E080077
:103DE20083120313C5000A128A112B2F4308FF3EC8
:103DF200C4004408AF00B0010314B00D42080A1613
:103E02008A11C3230A168A15831203134308FE3E3E
:103E1200C4004408AF00B0010314B00D42080A16F2
:103E22008A11C3230A168A15831203134308FD3E1F
:103E3200C4004408AF00B0010314B00D42080A16D2
:103E42008A11C3230A168A15831203134308FC3E00
:103E5200C4004408AF00B0010314B00D42080A16B2
:103E62008A11C3230A168A15831203134308FB3EE1
:103E7200C4004408AF00B0010314B00D42080A1692
:103E82008A11C3230A168A15831203134308C40036
:103E92004408AF00B0010314B00D4208013E0A16F7
:103EA2008A11C3230A168A15831203134308FA3EA2
:103EB200C4004408AF00B0010314B00D4208013E33
:103EC2000A168A11C3230A168A158312031343089A
:103ED200C4004408AF00B0010314B00D4208023E12
:103EE2000A168A11C3230A168A158312031343087A
:103EF200FA3EC4004408AF00B0010314B00D4208FA
:103F0200023E0A168A11C3230A168A158312031364
:103F12004308C4004408AF00B0010314B00D4208C6
:103F2200033E0A168A11C3230A168A158312031343
:103F32004308FA3EC4004408AF00B0010314B00DB8
:103F42004208033E0A168A11C3230A168A158312EF
:103F520003134308FF3EC4004408AF00B00103143A
:103F6200B00D4208043E0A168A11C3230A168A15A6
:103F7200831203134308FE3EC4004408AF00B0019D
:103F82000314B00D4208043E0A168A11C3230A160E
:103F92008A15831203134308FD3EC4004408AF0090
:103FA200B0010314B00D4208043E0A168A11C3235D
:103FB2000A168A15831203134308FC3EC400440800
:103FC200AF00B0010314B00D4208043E0A168A1174
:103FD200C3230A168A15831203134308FB3EC40047
:103FE2004408AF00B0010314B00D4208043E0A16A3
:0E3FF2008A11C3230A168A150A128A11512F4A
:02400E00323F3F
:00000001FF
